{
  "_format": "hh-sol-artifact-1",
  "contractName": "VerifySignature",
  "sourceName": "contracts/VerifySignature.sol",
  "abi": [
    {
      "inputs": [
        {
          "internalType": "bytes32",
          "name": "_messageHash",
          "type": "bytes32"
        }
      ],
      "name": "getEthSignedMessageHash",
      "outputs": [
        {
          "internalType": "bytes32",
          "name": "",
          "type": "bytes32"
        }
      ],
      "stateMutability": "pure",
      "type": "function"
    },
    {
      "inputs": [
        {
          "internalType": "address",
          "name": "_to",
          "type": "address"
        },
        {
          "internalType": "uint256",
          "name": "_amount",
          "type": "uint256"
        },
        {
          "internalType": "string",
          "name": "_message",
          "type": "string"
        },
        {
          "internalType": "uint256",
          "name": "_nonce",
          "type": "uint256"
        }
      ],
      "name": "getMessageHash",
      "outputs": [
        {
          "internalType": "bytes32",
          "name": "",
          "type": "bytes32"
        }
      ],
      "stateMutability": "pure",
      "type": "function"
    },
    {
      "inputs": [
        {
          "internalType": "bytes32",
          "name": "_ethSignedMessageHash",
          "type": "bytes32"
        },
        {
          "internalType": "bytes",
          "name": "_signature",
          "type": "bytes"
        }
      ],
      "name": "recoverSigner",
      "outputs": [
        {
          "internalType": "address",
          "name": "",
          "type": "address"
        }
      ],
      "stateMutability": "pure",
      "type": "function"
    },
    {
      "inputs": [
        {
          "internalType": "bytes",
          "name": "sig",
          "type": "bytes"
        }
      ],
      "name": "splitSignature",
      "outputs": [
        {
          "internalType": "bytes32",
          "name": "r",
          "type": "bytes32"
        },
        {
          "internalType": "bytes32",
          "name": "s",
          "type": "bytes32"
        },
        {
          "internalType": "uint8",
          "name": "v",
          "type": "uint8"
        }
      ],
      "stateMutability": "pure",
      "type": "function"
    },
    {
      "inputs": [
        {
          "internalType": "address",
          "name": "_signer",
          "type": "address"
        },
        {
          "internalType": "address",
          "name": "_to",
          "type": "address"
        },
        {
          "internalType": "uint256",
          "name": "_amount",
          "type": "uint256"
        },
        {
          "internalType": "string",
          "name": "_message",
          "type": "string"
        },
        {
          "internalType": "uint256",
          "name": "_nonce",
          "type": "uint256"
        },
        {
          "internalType": "bytes",
          "name": "signature",
          "type": "bytes"
        }
      ],
      "name": "verify",
      "outputs": [
        {
          "internalType": "bool",
          "name": "",
          "type": "bool"
        }
      ],
      "stateMutability": "pure",
      "type": "function"
    }
  ],
  "bytecode": "0x608060405234801561001057600080fd5b50610b1a806100206000396000f3fe608060405234801561001057600080fd5b50600436106100575760003560e01c806397aba7f91461005c578063a35f8a401461008c578063a7bb5803146100bc578063abe5026a146100ee578063fa5408011461011e575b600080fd5b6100766004803603810190610071919061055e565b61014e565b604051610083919061075b565b60405180910390f35b6100a660048036038101906100a191906104ba565b6101bd565b6040516100b39190610791565b60405180910390f35b6100d660048036038101906100d191906105b2565b6101f6565b6040516100e5939291906107ac565b60405180910390f35b61010860048036038101906101039190610401565b61025e565b6040516101159190610776565b60405180910390f35b61013860048036038101906101339190610535565b6102c2565b6040516101459190610791565b60405180910390f35b60008060008061015d856101f6565b9250925092506001868285856040516000815260200160405260405161018694939291906107e3565b6020604051602081039080840390855afa1580156101a8573d6000803e3d6000fd5b50505060206040510351935050505092915050565b6000848484846040516020016101d694939291906106eb565b604051602081830303815290604052805190602001209050949350505050565b6000806000604184511461023f576040517f08c379a000000000000000000000000000000000000000000000000000000000815260040161023690610828565b60405180910390fd5b6020840151925060408401519150606084015160001a90509193909250565b60008061026d878787876101bd565b9050600061027a826102c2565b90508873ffffffffffffffffffffffffffffffffffffffff1661029d828661014e565b73ffffffffffffffffffffffffffffffffffffffff1614925050509695505050505050565b6000816040516020016102d59190610735565b604051602081830303815290604052805190602001209050919050565b60006103056103008461086d565b610848565b90508281526020810184848401111561031d57600080fd5b610328848285610955565b509392505050565b600061034361033e8461089e565b610848565b90508281526020810184848401111561035b57600080fd5b610366848285610955565b509392505050565b60008135905061037d81610a9f565b92915050565b60008135905061039281610ab6565b92915050565b600082601f8301126103a957600080fd5b81356103b98482602086016102f2565b91505092915050565b600082601f8301126103d357600080fd5b81356103e3848260208601610330565b91505092915050565b6000813590506103fb81610acd565b92915050565b60008060008060008060c0878903121561041a57600080fd5b600061042889828a0161036e565b965050602061043989828a0161036e565b955050604061044a89828a016103ec565b945050606087013567ffffffffffffffff81111561046757600080fd5b61047389828a016103c2565b935050608061048489828a016103ec565b92505060a087013567ffffffffffffffff8111156104a157600080fd5b6104ad89828a01610398565b9150509295509295509295565b600080600080608085870312156104d057600080fd5b60006104de8782880161036e565b94505060206104ef878288016103ec565b935050604085013567ffffffffffffffff81111561050c57600080fd5b610518878288016103c2565b9250506060610529878288016103ec565b91505092959194509250565b60006020828403121561054757600080fd5b600061055584828501610383565b91505092915050565b6000806040838503121561057157600080fd5b600061057f85828601610383565b925050602083013567ffffffffffffffff81111561059c57600080fd5b6105a885828601610398565b9150509250929050565b6000602082840312156105c457600080fd5b600082013567ffffffffffffffff8111156105de57600080fd5b6105ea84828501610398565b91505092915050565b6105fc816108f6565b82525050565b61061361060e826108f6565b6109c8565b82525050565b61062281610908565b82525050565b61063181610914565b82525050565b61064861064382610914565b6109da565b82525050565b6000610659826108cf565b61066381856108eb565b9350610673818560208601610964565b80840191505092915050565b600061068c601c836108eb565b915061069782610a4d565b601c82019050919050565b60006106af6018836108da565b91506106ba82610a76565b602082019050919050565b6106d66106d18261093e565b6109f6565b82525050565b6106e581610948565b82525050565b60006106f78287610602565b60148201915061070782866106c5565b602082019150610717828561064e565b915061072382846106c5565b60208201915081905095945050505050565b60006107408261067f565b915061074c8284610637565b60208201915081905092915050565b600060208201905061077060008301846105f3565b92915050565b600060208201905061078b6000830184610619565b92915050565b60006020820190506107a66000830184610628565b92915050565b60006060820190506107c16000830186610628565b6107ce6020830185610628565b6107db60408301846106dc565b949350505050565b60006080820190506107f86000830187610628565b61080560208301866106dc565b6108126040830185610628565b61081f6060830184610628565b95945050505050565b60006020820190508181036000830152610841816106a2565b9050919050565b6000610852610863565b905061085e8282610997565b919050565b6000604051905090565b600067ffffffffffffffff82111561088857610887610a00565b5b61089182610a2f565b9050602081019050919050565b600067ffffffffffffffff8211156108b9576108b8610a00565b5b6108c282610a2f565b9050602081019050919050565b600081519050919050565b600082825260208201905092915050565b600081905092915050565b60006109018261091e565b9050919050565b60008115159050919050565b6000819050919050565b600073ffffffffffffffffffffffffffffffffffffffff82169050919050565b6000819050919050565b600060ff82169050919050565b82818337600083830152505050565b60005b83811015610982578082015181840152602081019050610967565b83811115610991576000848401525b50505050565b6109a082610a2f565b810181811067ffffffffffffffff821117156109bf576109be610a00565b5b80604052505050565b60006109d3826109e4565b9050919050565b6000819050919050565b60006109ef82610a40565b9050919050565b6000819050919050565b7f4e487b7100000000000000000000000000000000000000000000000000000000600052604160045260246000fd5b6000601f19601f8301169050919050565b60008160601b9050919050565b7f19457468657265756d205369676e6564204d6573736167653a0a333200000000600082015250565b7f696e76616c6964207369676e6174757265206c656e6774680000000000000000600082015250565b610aa8816108f6565b8114610ab357600080fd5b50565b610abf81610914565b8114610aca57600080fd5b50565b610ad68161093e565b8114610ae157600080fd5b5056fea2646970667358221220d914cd0f25dfa0e034cefb7a8f0760b7a78954512dcc56217e6152ab72f19aa764736f6c63430008040033",
  "linkReferences": {},
  "deployedLinkReferences": {}
}