{
  "_format": "hh-sol-artifact-1",
  "contractName": "UniswapArbitrage",
  "sourceName": "contracts/UniswapArbitrage.sol",
  "abi": [
    {
      "inputs": [],
      "stateMutability": "nonpayable",
      "type": "constructor"
    },
    {
      "inputs": [
        {
          "internalType": "address",
          "name": "_erc20Address",
          "type": "address"
        },
        {
          "internalType": "uint256",
          "name": "amount",
          "type": "uint256"
        }
      ],
      "name": "deposit",
      "outputs": [],
      "stateMutability": "nonpayable",
      "type": "function"
    },
    {
      "inputs": [
        {
          "internalType": "uint256",
          "name": "profitMargin",
          "type": "uint256"
        },
        {
          "internalType": "uint256",
          "name": "amount",
          "type": "uint256"
        },
        {
          "internalType": "address",
          "name": "baseCoinAddress",
          "type": "address"
        },
        {
          "internalType": "address",
          "name": "swapCoinAddress",
          "type": "address"
        },
        {
          "internalType": "address",
          "name": "buyRouterAddress",
          "type": "address"
        },
        {
          "internalType": "address",
          "name": "sellRouterAddress",
          "type": "address"
        }
      ],
      "name": "doArbitrage",
      "outputs": [],
      "stateMutability": "nonpayable",
      "type": "function"
    },
    {
      "inputs": [
        {
          "internalType": "address",
          "name": "_erc20Address",
          "type": "address"
        }
      ],
      "name": "getERC20Balance",
      "outputs": [
        {
          "internalType": "uint256",
          "name": "",
          "type": "uint256"
        }
      ],
      "stateMutability": "view",
      "type": "function"
    },
    {
      "inputs": [
        {
          "internalType": "address",
          "name": "sell_token",
          "type": "address"
        },
        {
          "internalType": "address",
          "name": "buy_token",
          "type": "address"
        },
        {
          "internalType": "uint256",
          "name": "amount",
          "type": "uint256"
        },
        {
          "internalType": "address",
          "name": "_routerAddress",
          "type": "address"
        }
      ],
      "name": "getPrice",
      "outputs": [
        {
          "internalType": "uint256",
          "name": "",
          "type": "uint256"
        }
      ],
      "stateMutability": "view",
      "type": "function"
    },
    {
      "inputs": [],
      "name": "owner",
      "outputs": [
        {
          "internalType": "address",
          "name": "",
          "type": "address"
        }
      ],
      "stateMutability": "view",
      "type": "function"
    },
    {
      "inputs": [
        {
          "internalType": "uint256",
          "name": "amountIn",
          "type": "uint256"
        },
        {
          "internalType": "address",
          "name": "sell_token",
          "type": "address"
        },
        {
          "internalType": "address",
          "name": "buy_token",
          "type": "address"
        },
        {
          "internalType": "address",
          "name": "_routerAddress",
          "type": "address"
        }
      ],
      "name": "swap",
      "outputs": [
        {
          "internalType": "uint256",
          "name": "",
          "type": "uint256"
        }
      ],
      "stateMutability": "nonpayable",
      "type": "function"
    },
    {
      "inputs": [
        {
          "internalType": "address",
          "name": "_erc20Address",
          "type": "address"
        },
        {
          "internalType": "uint256",
          "name": "amount",
          "type": "uint256"
        }
      ],
      "name": "withdraw",
      "outputs": [],
      "stateMutability": "nonpayable",
      "type": "function"
    },
    {
      "inputs": [
        {
          "internalType": "address",
          "name": "_erc20Address",
          "type": "address"
        }
      ],
      "name": "withdrawAll",
      "outputs": [],
      "stateMutability": "nonpayable",
      "type": "function"
    }
  ],
  "bytecode": "0x608060405234801561001057600080fd5b50336000806101000a81548173ffffffffffffffffffffffffffffffffffffffff021916908373ffffffffffffffffffffffffffffffffffffffff160217905550611822806100606000396000f3fe608060405234801561001057600080fd5b50600436106100885760003560e01c8063b588d2251161005b578063b588d22514610113578063e013de4c14610143578063f3fef3a314610173578063fa09e6301461018f57610088565b806347e7ef241461008d578063509e4733146100a957806388156e65146100c55780638da5cb5b146100f5575b600080fd5b6100a760048036038101906100a29190610eef565b6101ab565b005b6100c360048036038101906100be9190611021565b610310565b005b6100df60048036038101906100da9190610fbe565b6103e5565b6040516100ec9190611383565b60405180910390f35b6100fd61079f565b60405161010a919061121f565b60405180910390f35b61012d60048036038101906101289190610e63565b6107c3565b60405161013a9190611383565b60405180910390f35b61015d60048036038101906101589190610e8c565b610855565b60405161016a9190611383565b60405180910390f35b61018d60048036038101906101889190610eef565b610a96565b005b6101a960048036038101906101a49190610e63565b610c09565b005b60008054906101000a900473ffffffffffffffffffffffffffffffffffffffff1673ffffffffffffffffffffffffffffffffffffffff163373ffffffffffffffffffffffffffffffffffffffff1614610239576040517f08c379a000000000000000000000000000000000000000000000000000000000815260040161023090611303565b60405180910390fd5b6000811161027c576040517f08c379a0000000000000000000000000000000000000000000000000000000008152600401610273906112e3565b60405180910390fd5b8173ffffffffffffffffffffffffffffffffffffffff166323b872dd3330846040518463ffffffff1660e01b81526004016102b993929190611263565b602060405180830381600087803b1580156102d357600080fd5b505af11580156102e7573d6000803e3d6000fd5b505050506040513d601f19601f8201168201806040525081019061030b9190610f6c565b505050565b61038486118015610322575061044c86105b610361576040517f08c379a0000000000000000000000000000000000000000000000000000000008152600401610358906112c3565b60405180910390fd5b600061036f868686866103e5565b9050600061037f828688866103e5565b90506103e8888861039091906114f4565b61039a91906114c3565b81116103db576040517f08c379a00000000000000000000000000000000000000000000000000000000081526004016103d290611343565b60405180910390fd5b5050505050505050565b6000808473ffffffffffffffffffffffffffffffffffffffff1663dd62ed3e30856040518363ffffffff1660e01b815260040161042392919061123a565b60206040518083038186803b15801561043b57600080fd5b505afa15801561044f573d6000803e3d6000fd5b505050506040513d601f19601f820116820180604052508101906104739190610f95565b9050600081141561052d578473ffffffffffffffffffffffffffffffffffffffff1663095ea7b3847fffffffffffffffffffffffffffffffffffffffffffffffffffffffffffffffff6040518363ffffffff1660e01b81526004016104d992919061129a565b602060405180830381600087803b1580156104f357600080fd5b505af1158015610507573d6000803e3d6000fd5b505050506040513d601f19601f8201168201806040525081019061052b9190610f6c565b505b60006064605861053f88888b89610855565b61054991906114f4565b61055391906114c3565b90506000600267ffffffffffffffff811115610598577f4e487b7100000000000000000000000000000000000000000000000000000000600052604160045260246000fd5b6040519080825280602002602001820160405280156105c65781602001602082028036833780820191505090505b5090508681600081518110610604577f4e487b7100000000000000000000000000000000000000000000000000000000600052603260045260246000fd5b602002602001019073ffffffffffffffffffffffffffffffffffffffff16908173ffffffffffffffffffffffffffffffffffffffff16815250508581600181518110610679577f4e487b7100000000000000000000000000000000000000000000000000000000600052603260045260246000fd5b602002602001019073ffffffffffffffffffffffffffffffffffffffff16908173ffffffffffffffffffffffffffffffffffffffff168152505060008573ffffffffffffffffffffffffffffffffffffffff166338ed17398a858530426040518663ffffffff1660e01b81526004016106f69594939291906113ce565b600060405180830381600087803b15801561071057600080fd5b505af1158015610724573d6000803e3d6000fd5b505050506040513d6000823e3d601f19601f8201168201806040525081019061074d9190610f2b565b600181518110610786577f4e487b7100000000000000000000000000000000000000000000000000000000600052603260045260246000fd5b6020026020010151905080945050505050949350505050565b60008054906101000a900473ffffffffffffffffffffffffffffffffffffffff1681565b60008173ffffffffffffffffffffffffffffffffffffffff166370a08231306040518263ffffffff1660e01b81526004016107fe919061121f565b60206040518083038186803b15801561081657600080fd5b505afa15801561082a573d6000803e3d6000fd5b505050506040513d601f19601f8201168201806040525081019061084e9190610f95565b9050919050565b600080600267ffffffffffffffff811115610899577f4e487b7100000000000000000000000000000000000000000000000000000000600052604160045260246000fd5b6040519080825280602002602001820160405280156108c75781602001602082028036833780820191505090505b5090508581600081518110610905577f4e487b7100000000000000000000000000000000000000000000000000000000600052603260045260246000fd5b602002602001019073ffffffffffffffffffffffffffffffffffffffff16908173ffffffffffffffffffffffffffffffffffffffff1681525050848160018151811061097a577f4e487b7100000000000000000000000000000000000000000000000000000000600052603260045260246000fd5b602002602001019073ffffffffffffffffffffffffffffffffffffffff16908173ffffffffffffffffffffffffffffffffffffffff168152505060008373ffffffffffffffffffffffffffffffffffffffff1663d06ca61f86846040518363ffffffff1660e01b81526004016109f192919061139e565b60006040518083038186803b158015610a0957600080fd5b505afa158015610a1d573d6000803e3d6000fd5b505050506040513d6000823e3d601f19601f82011682018060405250810190610a469190610f2b565b600181518110610a7f577f4e487b7100000000000000000000000000000000000000000000000000000000600052603260045260246000fd5b602002602001015190508092505050949350505050565b60008054906101000a900473ffffffffffffffffffffffffffffffffffffffff1673ffffffffffffffffffffffffffffffffffffffff163373ffffffffffffffffffffffffffffffffffffffff1614610b24576040517f08c379a0000000000000000000000000000000000000000000000000000000008152600401610b1b90611303565b60405180910390fd5b6000610b2f836107c3565b905080821115610b74576040517f08c379a0000000000000000000000000000000000000000000000000000000008152600401610b6b90611363565b60405180910390fd5b8273ffffffffffffffffffffffffffffffffffffffff166323b872dd3033856040518463ffffffff1660e01b8152600401610bb193929190611263565b602060405180830381600087803b158015610bcb57600080fd5b505af1158015610bdf573d6000803e3d6000fd5b505050506040513d601f19601f82011682018060405250810190610c039190610f6c565b50505050565b60008054906101000a900473ffffffffffffffffffffffffffffffffffffffff1673ffffffffffffffffffffffffffffffffffffffff163373ffffffffffffffffffffffffffffffffffffffff1614610c97576040517f08c379a0000000000000000000000000000000000000000000000000000000008152600401610c8e90611303565b60405180910390fd5b6000610ca2826107c3565b905060008111610ce7576040517f08c379a0000000000000000000000000000000000000000000000000000000008152600401610cde90611323565b60405180910390fd5b8173ffffffffffffffffffffffffffffffffffffffff1663a9059cbb33836040518363ffffffff1660e01b8152600401610d2292919061129a565b602060405180830381600087803b158015610d3c57600080fd5b505af1158015610d50573d6000803e3d6000fd5b505050506040513d601f19601f82011682018060405250810190610d749190610f6c565b505050565b6000610d8c610d878461144d565b611428565b90508083825260208201905082856020860282011115610dab57600080fd5b60005b85811015610ddb5781610dc18882610e4e565b845260208401935060208301925050600181019050610dae565b5050509392505050565b600081359050610df4816117a7565b92915050565b600082601f830112610e0b57600080fd5b8151610e1b848260208601610d79565b91505092915050565b600081519050610e33816117be565b92915050565b600081359050610e48816117d5565b92915050565b600081519050610e5d816117d5565b92915050565b600060208284031215610e7557600080fd5b6000610e8384828501610de5565b91505092915050565b60008060008060808587031215610ea257600080fd5b6000610eb087828801610de5565b9450506020610ec187828801610de5565b9350506040610ed287828801610e39565b9250506060610ee387828801610de5565b91505092959194509250565b60008060408385031215610f0257600080fd5b6000610f1085828601610de5565b9250506020610f2185828601610e39565b9150509250929050565b600060208284031215610f3d57600080fd5b600082015167ffffffffffffffff811115610f5757600080fd5b610f6384828501610dfa565b91505092915050565b600060208284031215610f7e57600080fd5b6000610f8c84828501610e24565b91505092915050565b600060208284031215610fa757600080fd5b6000610fb584828501610e4e565b91505092915050565b60008060008060808587031215610fd457600080fd5b6000610fe287828801610e39565b9450506020610ff387828801610de5565b935050604061100487828801610de5565b925050606061101587828801610de5565b91505092959194509250565b60008060008060008060c0878903121561103a57600080fd5b600061104889828a01610e39565b965050602061105989828a01610e39565b955050604061106a89828a01610de5565b945050606061107b89828a01610de5565b935050608061108c89828a01610de5565b92505060a061109d89828a01610de5565b9150509295509295509295565b60006110b683836110c2565b60208301905092915050565b6110cb8161154e565b82525050565b6110da8161154e565b82525050565b60006110eb82611489565b6110f581856114a1565b935061110083611479565b8060005b8381101561113157815161111888826110aa565b975061112383611494565b925050600181019050611104565b5085935050505092915050565b600061114b6015836114b2565b915061115682611665565b602082019050919050565b600061116e6025836114b2565b91506111798261168e565b604082019050919050565b60006111916018836114b2565b915061119c826116dd565b602082019050919050565b60006111b46011836114b2565b91506111bf82611706565b602082019050919050565b60006111d7602a836114b2565b91506111e28261172f565b604082019050919050565b60006111fa601b836114b2565b91506112058261177e565b602082019050919050565b6112198161158c565b82525050565b600060208201905061123460008301846110d1565b92915050565b600060408201905061124f60008301856110d1565b61125c60208301846110d1565b9392505050565b600060608201905061127860008301866110d1565b61128560208301856110d1565b6112926040830184611210565b949350505050565b60006040820190506112af60008301856110d1565b6112bc6020830184611210565b9392505050565b600060208201905081810360008301526112dc8161113e565b9050919050565b600060208201905081810360008301526112fc81611161565b9050919050565b6000602082019050818103600083015261131c81611184565b9050919050565b6000602082019050818103600083015261133c816111a7565b9050919050565b6000602082019050818103600083015261135c816111ca565b9050919050565b6000602082019050818103600083015261137c816111ed565b9050919050565b60006020820190506113986000830184611210565b92915050565b60006040820190506113b36000830185611210565b81810360208301526113c581846110e0565b90509392505050565b600060a0820190506113e36000830188611210565b6113f06020830187611210565b818103604083015261140281866110e0565b905061141160608301856110d1565b61141e6080830184611210565b9695505050505050565b6000611432611443565b905061143e8282611596565b919050565b6000604051905090565b600067ffffffffffffffff82111561146857611467611625565b5b602082029050602081019050919050565b6000819050602082019050919050565b600081519050919050565b6000602082019050919050565b600082825260208201905092915050565b600082825260208201905092915050565b60006114ce8261158c565b91506114d98361158c565b9250826114e9576114e86115f6565b5b828204905092915050565b60006114ff8261158c565b915061150a8361158c565b9250817fffffffffffffffffffffffffffffffffffffffffffffffffffffffffffffffff0483118215151615611543576115426115c7565b5b828202905092915050565b60006115598261156c565b9050919050565b60008115159050919050565b600073ffffffffffffffffffffffffffffffffffffffff82169050919050565b6000819050919050565b61159f82611654565b810181811067ffffffffffffffff821117156115be576115bd611625565b5b80604052505050565b7f4e487b7100000000000000000000000000000000000000000000000000000000600052601160045260246000fd5b7f4e487b7100000000000000000000000000000000000000000000000000000000600052601260045260246000fd5b7f4e487b7100000000000000000000000000000000000000000000000000000000600052604160045260246000fd5b6000601f19601f8301169050919050565b7f496e76616c69642070726f666974206d617267696e0000000000000000000000600082015250565b7f4465706f73697420616d6f756e74206d7573742062652067726561746572207460008201527f68616e2030000000000000000000000000000000000000000000000000000000602082015250565b7f6f6e6c79206f776e65722063616e2063616c6c20746869730000000000000000600082015250565b7f4e6f7468696e67206465706f7369746564000000000000000000000000000000600082015250565b7f556e69737761704172626974726167652e20417262697472616765206e6f742060008201527f70726f66697461626c6500000000000000000000000000000000000000000000602082015250565b7f4e6f7420656e6f75676820616d6f756e74206465706f73697465640000000000600082015250565b6117b08161154e565b81146117bb57600080fd5b50565b6117c781611560565b81146117d257600080fd5b50565b6117de8161158c565b81146117e957600080fd5b5056fea2646970667358221220db994eee638f593dadd69960ce12d46eef712298faf97c82a515e943d3bd8d3a64736f6c63430008040033",
  "linkReferences": {},
  "deployedLinkReferences": {}
}