{
  "_format": "hh-sol-artifact-1",
  "contractName": "BatchFlashDemo",
  "sourceName": "contracts/BatchFlashDemo.sol",
  "abi": [
    {
      "inputs": [
        {
          "internalType": "address",
          "name": "_lendingPoolAddress",
          "type": "address"
        }
      ],
      "stateMutability": "nonpayable",
      "type": "constructor"
    },
    {
      "anonymous": false,
      "inputs": [
        {
          "indexed": false,
          "internalType": "uint256",
          "name": "_value",
          "type": "uint256"
        }
      ],
      "name": "FirstSwapAmount",
      "type": "event"
    },
    {
      "anonymous": false,
      "inputs": [
        {
          "indexed": false,
          "internalType": "uint256",
          "name": "",
          "type": "uint256"
        },
        {
          "indexed": false,
          "internalType": "uint256",
          "name": "",
          "type": "uint256"
        }
      ],
      "name": "TimestampLog",
      "type": "event"
    },
    {
      "inputs": [],
      "name": "ADDRESSES_PROVIDER",
      "outputs": [
        {
          "internalType": "contract IPoolAddressesProvider",
          "name": "",
          "type": "address"
        }
      ],
      "stateMutability": "view",
      "type": "function"
    },
    {
      "inputs": [],
      "name": "POOL",
      "outputs": [
        {
          "internalType": "contract IPool",
          "name": "",
          "type": "address"
        }
      ],
      "stateMutability": "view",
      "type": "function"
    },
    {
      "inputs": [],
      "name": "buyRouterAddress",
      "outputs": [
        {
          "internalType": "address",
          "name": "",
          "type": "address"
        }
      ],
      "stateMutability": "view",
      "type": "function"
    },
    {
      "inputs": [
        {
          "internalType": "address",
          "name": "_erc20Address",
          "type": "address"
        },
        {
          "internalType": "uint256",
          "name": "amount",
          "type": "uint256"
        }
      ],
      "name": "deposit",
      "outputs": [],
      "stateMutability": "nonpayable",
      "type": "function"
    },
    {
      "inputs": [
        {
          "internalType": "address",
          "name": "asset",
          "type": "address"
        },
        {
          "internalType": "uint256",
          "name": "amount",
          "type": "uint256"
        },
        {
          "internalType": "uint256",
          "name": "premium",
          "type": "uint256"
        },
        {
          "internalType": "address",
          "name": "initiator",
          "type": "address"
        },
        {
          "internalType": "bytes",
          "name": "params",
          "type": "bytes"
        }
      ],
      "name": "executeOperation",
      "outputs": [
        {
          "internalType": "bool",
          "name": "",
          "type": "bool"
        }
      ],
      "stateMutability": "nonpayable",
      "type": "function"
    },
    {
      "inputs": [
        {
          "internalType": "address",
          "name": "_loanCoinAddress",
          "type": "address"
        },
        {
          "internalType": "uint256",
          "name": "_amount",
          "type": "uint256"
        },
        {
          "internalType": "address",
          "name": "_swapCoinAddress",
          "type": "address"
        },
        {
          "internalType": "address",
          "name": "_buyRouterAddress",
          "type": "address"
        },
        {
          "internalType": "address",
          "name": "_sellRouterAddress",
          "type": "address"
        }
      ],
      "name": "flashloan",
      "outputs": [],
      "stateMutability": "nonpayable",
      "type": "function"
    },
    {
      "inputs": [
        {
          "internalType": "address",
          "name": "_erc20Address",
          "type": "address"
        }
      ],
      "name": "getERC20Balance",
      "outputs": [
        {
          "internalType": "uint256",
          "name": "",
          "type": "uint256"
        }
      ],
      "stateMutability": "view",
      "type": "function"
    },
    {
      "inputs": [],
      "name": "loanCoinAddress",
      "outputs": [
        {
          "internalType": "address",
          "name": "",
          "type": "address"
        }
      ],
      "stateMutability": "view",
      "type": "function"
    },
    {
      "inputs": [],
      "name": "owner",
      "outputs": [
        {
          "internalType": "address",
          "name": "",
          "type": "address"
        }
      ],
      "stateMutability": "view",
      "type": "function"
    },
    {
      "inputs": [],
      "name": "sellRouterAddress",
      "outputs": [
        {
          "internalType": "address",
          "name": "",
          "type": "address"
        }
      ],
      "stateMutability": "view",
      "type": "function"
    },
    {
      "inputs": [],
      "name": "swapCoinAddress",
      "outputs": [
        {
          "internalType": "address",
          "name": "",
          "type": "address"
        }
      ],
      "stateMutability": "view",
      "type": "function"
    },
    {
      "inputs": [
        {
          "internalType": "address",
          "name": "_erc20Address",
          "type": "address"
        },
        {
          "internalType": "uint256",
          "name": "amount",
          "type": "uint256"
        }
      ],
      "name": "withdraw",
      "outputs": [],
      "stateMutability": "nonpayable",
      "type": "function"
    },
    {
      "inputs": [
        {
          "internalType": "address",
          "name": "_erc20Address",
          "type": "address"
        }
      ],
      "name": "withdrawAll",
      "outputs": [],
      "stateMutability": "nonpayable",
      "type": "function"
    }
  ],
  "bytecode": "0x60c06040523480156200001157600080fd5b5060405162001fc738038062001fc7833981810160405281019062000037919062000186565b808073ffffffffffffffffffffffffffffffffffffffff1660808173ffffffffffffffffffffffffffffffffffffffff1660601b815250508073ffffffffffffffffffffffffffffffffffffffff1663026b1d5f6040518163ffffffff1660e01b815260040160206040518083038186803b158015620000b657600080fd5b505afa158015620000cb573d6000803e3d6000fd5b505050506040513d601f19601f82011682018060405250810190620000f1919062000186565b73ffffffffffffffffffffffffffffffffffffffff1660a08173ffffffffffffffffffffffffffffffffffffffff1660601b8152505050336000806101000a81548173ffffffffffffffffffffffffffffffffffffffff021916908373ffffffffffffffffffffffffffffffffffffffff1602179055505062000200565b6000815190506200018081620001e6565b92915050565b6000602082840312156200019957600080fd5b6000620001a9848285016200016f565b91505092915050565b6000620001bf82620001c6565b9050919050565b600073ffffffffffffffffffffffffffffffffffffffff82169050919050565b620001f181620001b2565b8114620001fd57600080fd5b50565b60805160601c60a05160601c611d8d6200023a600039600081816103f50152818161066f01526108f1015260006102780152611d8d6000f3fe608060405234801561001057600080fd5b50600436106100cf5760003560e01c80637535d2461161008c578063e484426311610066578063e484426314610204578063e4d71fa514610220578063f3fef3a31461023e578063fa09e6301461025a576100cf565b80637535d246146101985780638da5cb5b146101b6578063b588d225146101d4576100cf565b80630542975c146100d45780631b11d0ff146100f25780631e67b06d14610122578063361f59651461014057806347e7ef241461015e57806373b4398f1461017a575b600080fd5b6100dc610276565b6040516100e991906117b5565b60405180910390f35b61010c600480360381019061010791906113fc565b61029a565b604051610119919061179a565b60405180910390f35b61012a610496565b60405161013791906116c5565b60405180910390f35b6101486104bc565b60405161015591906116c5565b60405180910390f35b61017860048036038101906101739190611349565b6104e2565b005b610182610647565b60405161018f91906116c5565b60405180910390f35b6101a061066d565b6040516101ad91906117d0565b60405180910390f35b6101be610691565b6040516101cb91906116c5565b60405180910390f35b6101ee60048036038101906101e99190611320565b6106b5565b6040516101fb919061186b565b60405180910390f35b61021e60048036038101906102199190611385565b610747565b005b61022861098b565b60405161023591906116c5565b60405180910390f35b61025860048036038101906102539190611349565b6109b1565b005b610274600480360381019061026f9190611320565b610b24565b005b7f000000000000000000000000000000000000000000000000000000000000000081565b600080869050600061031482600160009054906101000a900473ffffffffffffffffffffffffffffffffffffffff16600260009054906101000a900473ffffffffffffffffffffffffffffffffffffffff16600360009054906101000a900473ffffffffffffffffffffffffffffffffffffffff16610c94565b90507f506b11901757922a116dd2e239381ef8583d70736a21590b3cf479002e40399381604051610345919061186b565b60405180910390a16103bf81600260009054906101000a900473ffffffffffffffffffffffffffffffffffffffff16600160009054906101000a900473ffffffffffffffffffffffffffffffffffffffff16600460009054906101000a900473ffffffffffffffffffffffffffffffffffffffff16610c94565b5060006103d5888a610f9590919063ffffffff16565b90508973ffffffffffffffffffffffffffffffffffffffff1663095ea7b37f0000000000000000000000000000000000000000000000000000000000000000836040518363ffffffff1660e01b8152600401610432929190611771565b602060405180830381600087803b15801561044c57600080fd5b505af1158015610460573d6000803e3d6000fd5b505050506040513d601f19601f8201168201806040525081019061048491906114cf565b50600193505050509695505050505050565b600360009054906101000a900473ffffffffffffffffffffffffffffffffffffffff1681565b600160009054906101000a900473ffffffffffffffffffffffffffffffffffffffff1681565b60008054906101000a900473ffffffffffffffffffffffffffffffffffffffff1673ffffffffffffffffffffffffffffffffffffffff163373ffffffffffffffffffffffffffffffffffffffff1614610570576040517f08c379a00000000000000000000000000000000000000000000000000000000081526004016105679061180b565b60405180910390fd5b600081116105b3576040517f08c379a00000000000000000000000000000000000000000000000000000000081526004016105aa906117eb565b60405180910390fd5b8173ffffffffffffffffffffffffffffffffffffffff166323b872dd3330846040518463ffffffff1660e01b81526004016105f0939291906116e0565b602060405180830381600087803b15801561060a57600080fd5b505af115801561061e573d6000803e3d6000fd5b505050506040513d601f19601f8201168201806040525081019061064291906114cf565b505050565b600260009054906101000a900473ffffffffffffffffffffffffffffffffffffffff1681565b7f000000000000000000000000000000000000000000000000000000000000000081565b60008054906101000a900473ffffffffffffffffffffffffffffffffffffffff1681565b60008173ffffffffffffffffffffffffffffffffffffffff166370a08231306040518263ffffffff1660e01b81526004016106f091906116c5565b60206040518083038186803b15801561070857600080fd5b505afa15801561071c573d6000803e3d6000fd5b505050506040513d601f19601f8201168201806040525081019061074091906114f8565b9050919050565b60008054906101000a900473ffffffffffffffffffffffffffffffffffffffff1673ffffffffffffffffffffffffffffffffffffffff163373ffffffffffffffffffffffffffffffffffffffff16146107d5576040517f08c379a00000000000000000000000000000000000000000000000000000000081526004016107cc9061180b565b60405180910390fd5b84600160006101000a81548173ffffffffffffffffffffffffffffffffffffffff021916908373ffffffffffffffffffffffffffffffffffffffff16021790555082600260006101000a81548173ffffffffffffffffffffffffffffffffffffffff021916908373ffffffffffffffffffffffffffffffffffffffff16021790555081600360006101000a81548173ffffffffffffffffffffffffffffffffffffffff021916908373ffffffffffffffffffffffffffffffffffffffff16021790555080600460006101000a81548173ffffffffffffffffffffffffffffffffffffffff021916908373ffffffffffffffffffffffffffffffffffffffff160217905550600060405180602001604052806000815250905060007f000000000000000000000000000000000000000000000000000000000000000073ffffffffffffffffffffffffffffffffffffffff166342b0b77c30898986866040518663ffffffff1660e01b8152600401610950959493929190611717565b600060405180830381600087803b15801561096a57600080fd5b505af115801561097e573d6000803e3d6000fd5b5050505050505050505050565b600460009054906101000a900473ffffffffffffffffffffffffffffffffffffffff1681565b60008054906101000a900473ffffffffffffffffffffffffffffffffffffffff1673ffffffffffffffffffffffffffffffffffffffff163373ffffffffffffffffffffffffffffffffffffffff1614610a3f576040517f08c379a0000000000000000000000000000000000000000000000000000000008152600401610a369061180b565b60405180910390fd5b6000610a4a836106b5565b905080821115610a8f576040517f08c379a0000000000000000000000000000000000000000000000000000000008152600401610a869061184b565b60405180910390fd5b8273ffffffffffffffffffffffffffffffffffffffff166323b872dd3033856040518463ffffffff1660e01b8152600401610acc939291906116e0565b602060405180830381600087803b158015610ae657600080fd5b505af1158015610afa573d6000803e3d6000fd5b505050506040513d601f19601f82011682018060405250810190610b1e91906114cf565b50505050565b60008054906101000a900473ffffffffffffffffffffffffffffffffffffffff1673ffffffffffffffffffffffffffffffffffffffff163373ffffffffffffffffffffffffffffffffffffffff1614610bb2576040517f08c379a0000000000000000000000000000000000000000000000000000000008152600401610ba99061180b565b60405180910390fd5b6000610bbd826106b5565b905060008111610c02576040517f08c379a0000000000000000000000000000000000000000000000000000000008152600401610bf99061182b565b60405180910390fd5b8173ffffffffffffffffffffffffffffffffffffffff1663a9059cbb33836040518363ffffffff1660e01b8152600401610c3d929190611771565b602060405180830381600087803b158015610c5757600080fd5b505af1158015610c6b573d6000803e3d6000fd5b505050506040513d601f19601f82011682018060405250810190610c8f91906114cf565b505050565b60008373ffffffffffffffffffffffffffffffffffffffff1663095ea7b383876040518363ffffffff1660e01b8152600401610cd1929190611771565b602060405180830381600087803b158015610ceb57600080fd5b505af1158015610cff573d6000803e3d6000fd5b505050506040513d601f19601f82011682018060405250810190610d2391906114cf565b5060006064605f610d3687878a88610fab565b610d409190611a4e565b610d4a9190611a1d565b90506000600267ffffffffffffffff811115610d8f577f4e487b7100000000000000000000000000000000000000000000000000000000600052604160045260246000fd5b604051908082528060200260200182016040528015610dbd5781602001602082028036833780820191505090505b5090508581600081518110610dfb577f4e487b7100000000000000000000000000000000000000000000000000000000600052603260045260246000fd5b602002602001019073ffffffffffffffffffffffffffffffffffffffff16908173ffffffffffffffffffffffffffffffffffffffff16815250508481600181518110610e70577f4e487b7100000000000000000000000000000000000000000000000000000000600052603260045260246000fd5b602002602001019073ffffffffffffffffffffffffffffffffffffffff16908173ffffffffffffffffffffffffffffffffffffffff168152505060008473ffffffffffffffffffffffffffffffffffffffff166338ed173989858530426040518663ffffffff1660e01b8152600401610eed9594939291906118b6565b600060405180830381600087803b158015610f0757600080fd5b505af1158015610f1b573d6000803e3d6000fd5b505050506040513d6000823e3d601f19601f82011682018060405250810190610f44919061148e565b600181518110610f7d577f4e487b7100000000000000000000000000000000000000000000000000000000600052603260045260246000fd5b60200260200101519050809350505050949350505050565b60008183610fa391906119c7565b905092915050565b600080600267ffffffffffffffff811115610fef577f4e487b7100000000000000000000000000000000000000000000000000000000600052604160045260246000fd5b60405190808252806020026020018201604052801561101d5781602001602082028036833780820191505090505b509050858160008151811061105b577f4e487b7100000000000000000000000000000000000000000000000000000000600052603260045260246000fd5b602002602001019073ffffffffffffffffffffffffffffffffffffffff16908173ffffffffffffffffffffffffffffffffffffffff168152505084816001815181106110d0577f4e487b7100000000000000000000000000000000000000000000000000000000600052603260045260246000fd5b602002602001019073ffffffffffffffffffffffffffffffffffffffff16908173ffffffffffffffffffffffffffffffffffffffff168152505060008373ffffffffffffffffffffffffffffffffffffffff1663d06ca61f86846040518363ffffffff1660e01b8152600401611147929190611886565b60006040518083038186803b15801561115f57600080fd5b505afa158015611173573d6000803e3d6000fd5b505050506040513d6000823e3d601f19601f8201168201806040525081019061119c919061148e565b6001815181106111d5577f4e487b7100000000000000000000000000000000000000000000000000000000600052603260045260246000fd5b602002602001015190508092505050949350505050565b60006111ff6111fa84611935565b611910565b9050808382526020820190508285602086028201111561121e57600080fd5b60005b8581101561124e5781611234888261130b565b845260208401935060208301925050600181019050611221565b5050509392505050565b60008135905061126781611d12565b92915050565b600082601f83011261127e57600080fd5b815161128e8482602086016111ec565b91505092915050565b6000815190506112a681611d29565b92915050565b60008083601f8401126112be57600080fd5b8235905067ffffffffffffffff8111156112d757600080fd5b6020830191508360018202830111156112ef57600080fd5b9250929050565b60008135905061130581611d40565b92915050565b60008151905061131a81611d40565b92915050565b60006020828403121561133257600080fd5b600061134084828501611258565b91505092915050565b6000806040838503121561135c57600080fd5b600061136a85828601611258565b925050602061137b858286016112f6565b9150509250929050565b600080600080600060a0868803121561139d57600080fd5b60006113ab88828901611258565b95505060206113bc888289016112f6565b94505060406113cd88828901611258565b93505060606113de88828901611258565b92505060806113ef88828901611258565b9150509295509295909350565b60008060008060008060a0878903121561141557600080fd5b600061142389828a01611258565b965050602061143489828a016112f6565b955050604061144589828a016112f6565b945050606061145689828a01611258565b935050608087013567ffffffffffffffff81111561147357600080fd5b61147f89828a016112ac565b92509250509295509295509295565b6000602082840312156114a057600080fd5b600082015167ffffffffffffffff8111156114ba57600080fd5b6114c68482850161126d565b91505092915050565b6000602082840312156114e157600080fd5b60006114ef84828501611297565b91505092915050565b60006020828403121561150a57600080fd5b60006115188482850161130b565b91505092915050565b600061152d8383611539565b60208301905092915050565b61154281611aa8565b82525050565b61155181611aa8565b82525050565b600061156282611971565b61156c8185611994565b935061157783611961565b8060005b838110156115a857815161158f8882611521565b975061159a83611987565b92505060018101905061157b565b5085935050505092915050565b6115be81611aba565b82525050565b60006115cf8261197c565b6115d981856119a5565b93506115e9818560208601611b46565b6115f281611c37565b840191505092915050565b61160681611afe565b82525050565b61161581611b22565b82525050565b60006116286025836119b6565b915061163382611c48565b604082019050919050565b600061164b6018836119b6565b915061165682611c97565b602082019050919050565b600061166e6011836119b6565b915061167982611cc0565b602082019050919050565b6000611691601b836119b6565b915061169c82611ce9565b602082019050919050565b6116b081611ac6565b82525050565b6116bf81611af4565b82525050565b60006020820190506116da6000830184611548565b92915050565b60006060820190506116f56000830186611548565b6117026020830185611548565b61170f60408301846116b6565b949350505050565b600060a08201905061172c6000830188611548565b6117396020830187611548565b61174660408301866116b6565b818103606083015261175881856115c4565b905061176760808301846116a7565b9695505050505050565b60006040820190506117866000830185611548565b61179360208301846116b6565b9392505050565b60006020820190506117af60008301846115b5565b92915050565b60006020820190506117ca60008301846115fd565b92915050565b60006020820190506117e5600083018461160c565b92915050565b600060208201905081810360008301526118048161161b565b9050919050565b600060208201905081810360008301526118248161163e565b9050919050565b6000602082019050818103600083015261184481611661565b9050919050565b6000602082019050818103600083015261186481611684565b9050919050565b600060208201905061188060008301846116b6565b92915050565b600060408201905061189b60008301856116b6565b81810360208301526118ad8184611557565b90509392505050565b600060a0820190506118cb60008301886116b6565b6118d860208301876116b6565b81810360408301526118ea8186611557565b90506118f96060830185611548565b61190660808301846116b6565b9695505050505050565b600061191a61192b565b90506119268282611b79565b919050565b6000604051905090565b600067ffffffffffffffff8211156119505761194f611c08565b5b602082029050602081019050919050565b6000819050602082019050919050565b600081519050919050565b600081519050919050565b6000602082019050919050565b600082825260208201905092915050565b600082825260208201905092915050565b600082825260208201905092915050565b60006119d282611af4565b91506119dd83611af4565b9250827fffffffffffffffffffffffffffffffffffffffffffffffffffffffffffffffff03821115611a1257611a11611baa565b5b828201905092915050565b6000611a2882611af4565b9150611a3383611af4565b925082611a4357611a42611bd9565b5b828204905092915050565b6000611a5982611af4565b9150611a6483611af4565b9250817fffffffffffffffffffffffffffffffffffffffffffffffffffffffffffffffff0483118215151615611a9d57611a9c611baa565b5b828202905092915050565b6000611ab382611ad4565b9050919050565b60008115159050919050565b600061ffff82169050919050565b600073ffffffffffffffffffffffffffffffffffffffff82169050919050565b6000819050919050565b6000611b0982611b10565b9050919050565b6000611b1b82611ad4565b9050919050565b6000611b2d82611b34565b9050919050565b6000611b3f82611ad4565b9050919050565b60005b83811015611b64578082015181840152602081019050611b49565b83811115611b73576000848401525b50505050565b611b8282611c37565b810181811067ffffffffffffffff82111715611ba157611ba0611c08565b5b80604052505050565b7f4e487b7100000000000000000000000000000000000000000000000000000000600052601160045260246000fd5b7f4e487b7100000000000000000000000000000000000000000000000000000000600052601260045260246000fd5b7f4e487b7100000000000000000000000000000000000000000000000000000000600052604160045260246000fd5b6000601f19601f8301169050919050565b7f4465706f73697420616d6f756e74206d7573742062652067726561746572207460008201527f68616e2030000000000000000000000000000000000000000000000000000000602082015250565b7f6f6e6c79206f776e65722063616e2063616c6c20746869730000000000000000600082015250565b7f4e6f7468696e67206465706f7369746564000000000000000000000000000000600082015250565b7f4e6f7420656e6f75676820616d6f756e74206465706f73697465640000000000600082015250565b611d1b81611aa8565b8114611d2657600080fd5b50565b611d3281611aba565b8114611d3d57600080fd5b50565b611d4981611af4565b8114611d5457600080fd5b5056fea2646970667358221220d284560135ba41a4e6a4a7318f3c38cb7a32d7c666e4598ded03cda6ebc5fad864736f6c63430008040033",
  "linkReferences": {},
  "deployedLinkReferences": {}
}